{
  "_format": "hh-sol-artifact-1",
  "contractName": "BatchTransferContract",
  "sourceName": "contracts/BatchTransferContract.sol",
  "abi": [
    {
      "anonymous": false,
      "inputs": [
        {
          "indexed": false,
          "internalType": "address",
          "name": "fromAddress",
          "type": "address"
        },
        {
          "indexed": true,
          "internalType": "address[]",
          "name": "toAddress",
          "type": "address[]"
        },
        {
          "indexed": false,
          "internalType": "uint256[]",
          "name": "recipientAmount",
          "type": "uint256[]"
        }
      ],
      "name": "BatchTransfer",
      "type": "event"
    },
    {
      "anonymous": false,
      "inputs": [
        {
          "indexed": true,
          "internalType": "address",
          "name": "fromAddress",
          "type": "address"
        },
        {
          "indexed": true,
          "internalType": "address[]",
          "name": "tokenAddress",
          "type": "address[]"
        },
        {
          "indexed": false,
          "internalType": "address[]",
          "name": "tokenRecipientAddress",
          "type": "address[]"
        },
        {
          "indexed": false,
          "internalType": "uint256[]",
          "name": "tokenAmount",
          "type": "uint256[]"
        },
        {
          "indexed": true,
          "internalType": "address[]",
          "name": "recipients",
          "type": "address[]"
        },
        {
          "indexed": false,
          "internalType": "uint256[]",
          "name": "amount",
          "type": "uint256[]"
        }
      ],
      "name": "BatchTransferCombinedMultiTokens",
      "type": "event"
    },
    {
      "anonymous": false,
      "inputs": [
        {
          "indexed": true,
          "internalType": "address",
          "name": "fromAddress",
          "type": "address"
        },
        {
          "indexed": true,
          "internalType": "address[]",
          "name": "tokenAddress",
          "type": "address[]"
        },
        {
          "indexed": true,
          "internalType": "address[]",
          "name": "toAddress",
          "type": "address[]"
        },
        {
          "indexed": false,
          "internalType": "uint256[]",
          "name": "recipientAmount",
          "type": "uint256[]"
        }
      ],
      "name": "BatchTransferMultiToken",
      "type": "event"
    },
    {
      "anonymous": false,
      "inputs": [
        {
          "indexed": true,
          "internalType": "address",
          "name": "fromAddress",
          "type": "address"
        },
        {
          "indexed": true,
          "internalType": "address",
          "name": "tokenAddress",
          "type": "address"
        },
        {
          "indexed": true,
          "internalType": "address[]",
          "name": "toAddress",
          "type": "address[]"
        },
        {
          "indexed": false,
          "internalType": "uint256[]",
          "name": "recipientAmount",
          "type": "uint256[]"
        }
      ],
      "name": "BatchTransferToken",
      "type": "event"
    },
    {
      "stateMutability": "nonpayable",
      "type": "fallback"
    },
    {
      "inputs": [
        {
          "internalType": "address[]",
          "name": "recipients",
          "type": "address[]"
        },
        {
          "internalType": "uint256[]",
          "name": "amounts",
          "type": "uint256[]"
        }
      ],
      "name": "batchTransfer",
      "outputs": [],
      "stateMutability": "payable",
      "type": "function"
    },
    {
      "inputs": [
        {
          "internalType": "address[]",
          "name": "tokenAddress",
          "type": "address[]"
        },
        {
          "internalType": "address[]",
          "name": "tokenRecipients",
          "type": "address[]"
        },
        {
          "internalType": "uint256[]",
          "name": "tokenAmounts",
          "type": "uint256[]"
        },
        {
          "internalType": "address[]",
          "name": "recipients",
          "type": "address[]"
        },
        {
          "internalType": "uint256[]",
          "name": "amounts",
          "type": "uint256[]"
        }
      ],
      "name": "batchTransferCombinedMultiTokens",
      "outputs": [],
      "stateMutability": "payable",
      "type": "function"
    },
    {
      "inputs": [
        {
          "internalType": "address[]",
          "name": "tokenAddress",
          "type": "address[]"
        },
        {
          "internalType": "address[]",
          "name": "recipients",
          "type": "address[]"
        },
        {
          "internalType": "uint256[]",
          "name": "amounts",
          "type": "uint256[]"
        }
      ],
      "name": "batchTransferMultiTokens",
      "outputs": [],
      "stateMutability": "nonpayable",
      "type": "function"
    },
    {
      "inputs": [
        {
          "internalType": "address",
          "name": "tokenAddress",
          "type": "address"
        },
        {
          "internalType": "address[]",
          "name": "recipients",
          "type": "address[]"
        },
        {
          "internalType": "uint256[]",
          "name": "amounts",
          "type": "uint256[]"
        }
      ],
      "name": "batchTransferToken",
      "outputs": [],
      "stateMutability": "nonpayable",
      "type": "function"
    }
  ],
  "bytecode": "0x608060405234801561001057600080fd5b50611d11806100206000396000f3fe6080604052600436106100435760003560e01c806320651d5d1461005257806333d92b371461007b57806388d695b2146100975780638deab3de146100b357610044565b5b34801561005057600080fd5b005b34801561005e57600080fd5b506100796004803603810190610074919061122f565b6100dc565b005b610095600480360381019061009091906112c4565b61068b565b005b6100b160048036038101906100ac91906113e1565b610b89565b005b3480156100bf57600080fd5b506100da60048036038101906100d59190611462565b610e5d565b005b818190508484905014610124576040517f08c379a000000000000000000000000000000000000000000000000000000000815260040161011b90611599565b60405180910390fd5b6000859050600385859050116102da5760005b858590508110156102d45760008273ffffffffffffffffffffffffffffffffffffffff163388888581811061016f5761016e6115b9565b5b905060200201602081019061018491906115e8565b878786818110610197576101966115b9565b5b905060200201356040516024016101b09392919061163d565b6040516020818303038152906040527f23b872dd000000000000000000000000000000000000000000000000000000007bffffffffffffffffffffffffffffffffffffffffffffffffffffffff19166020820180517bffffffffffffffffffffffffffffffffffffffffffffffffffffffff838183161783525050505060405161023a91906116e5565b6000604051808303816000865af19150503d8060008114610277576040519150601f19603f3d011682016040523d82523d6000602084013e61027c565b606091505b50509050806102c0576040517f08c379a00000000000000000000000000000000000000000000000000000000081526004016102b790611748565b60405180910390fd5b5080806102cc90611797565b915050610137565b50610604565b6000805b86869050811015610323578484828181106102fc576102fb6115b9565b5b905060200201358261030e91906117df565b9150808061031b90611797565b9150506102de565b5060008273ffffffffffffffffffffffffffffffffffffffff163330846040516024016103529392919061163d565b6040516020818303038152906040527f23b872dd000000000000000000000000000000000000000000000000000000007bffffffffffffffffffffffffffffffffffffffffffffffffffffffff19166020820180517bffffffffffffffffffffffffffffffffffffffffffffffffffffffff83818316178352505050506040516103dc91906116e5565b6000604051808303816000865af19150503d8060008114610419576040519150601f19603f3d011682016040523d82523d6000602084013e61041e565b606091505b5050905080610462576040517f08c379a000000000000000000000000000000000000000000000000000000000815260040161045990611748565b60405180910390fd5b60005b878790508110156106005760008473ffffffffffffffffffffffffffffffffffffffff1689898481811061049c5761049b6115b9565b5b90506020020160208101906104b191906115e8565b8888858181106104c4576104c36115b9565b5b905060200201356040516024016104dc929190611813565b6040516020818303038152906040527fa9059cbb000000000000000000000000000000000000000000000000000000007bffffffffffffffffffffffffffffffffffffffffffffffffffffffff19166020820180517bffffffffffffffffffffffffffffffffffffffffffffffffffffffff838183161783525050505060405161056691906116e5565b6000604051808303816000865af19150503d80600081146105a3576040519150601f19603f3d011682016040523d82523d6000602084013e6105a8565b606091505b50509050806105ec576040517f08c379a00000000000000000000000000000000000000000000000000000000081526004016105e390611748565b60405180910390fd5b5080806105f890611797565b915050610465565b5050505b84846040516106149291906118f9565b60405180910390208673ffffffffffffffffffffffffffffffffffffffff163373ffffffffffffffffffffffffffffffffffffffff167fa03f0ed2739df8cf3a61713fd9034ac4563c01eaaa4efe42524d1319c3855139868660405161067b92919061198d565b60405180910390a4505050505050565b878790508a8a90501480156106a55750858590508a8a9050145b80156106b657508181905084849050145b6106f5576040517f08c379a00000000000000000000000000000000000000000000000000000000081526004016106ec90611599565b60405180910390fd5b6000805b858590508110156107d457600073ffffffffffffffffffffffffffffffffffffffff1686868381811061072f5761072e6115b9565b5b905060200201602081019061074491906115e8565b73ffffffffffffffffffffffffffffffffffffffff160361079a576040517f08c379a0000000000000000000000000000000000000000000000000000000008152600401610791906119fd565b60405180910390fd5b8383828181106107ad576107ac6115b9565b5b90506020020135826107bf91906117df565b915080806107cc90611797565b9150506106f9565b50803414610817576040517f08c379a000000000000000000000000000000000000000000000000000000000815260040161080e90611a69565b60405180910390fd5b60005b8585905081101561092557600086868381811061083a576108396115b9565b5b905060200201602081019061084f91906115e8565b73ffffffffffffffffffffffffffffffffffffffff16858584818110610878576108776115b9565b5b9050602002013560405161088b90611aaf565b60006040518083038185875af1925050503d80600081146108c8576040519150601f19603f3d011682016040523d82523d6000602084013e6108cd565b606091505b5050905080610911576040517f08c379a000000000000000000000000000000000000000000000000000000000815260040161090890611b10565b60405180910390fd5b50808061091d90611797565b91505061081a565b5060005b8b8b9050811015610af35760008c8c83818110610949576109486115b9565b5b905060200201602081019061095e91906115e8565b905060008173ffffffffffffffffffffffffffffffffffffffff16338d8d8681811061098d5761098c6115b9565b5b90506020020160208101906109a291906115e8565b8c8c878181106109b5576109b46115b9565b5b905060200201356040516024016109ce9392919061163d565b6040516020818303038152906040527f23b872dd000000000000000000000000000000000000000000000000000000007bffffffffffffffffffffffffffffffffffffffffffffffffffffffff19166020820180517bffffffffffffffffffffffffffffffffffffffffffffffffffffffff8381831617835250505050604051610a5891906116e5565b6000604051808303816000865af19150503d8060008114610a95576040519150601f19603f3d011682016040523d82523d6000602084013e610a9a565b606091505b5050905080610ade576040517f08c379a0000000000000000000000000000000000000000000000000000000008152600401610ad590611748565b60405180910390fd5b50508080610aeb90611797565b915050610929565b508484604051610b049291906118f9565b60405180910390208b8b604051610b1c9291906118f9565b60405180910390203373ffffffffffffffffffffffffffffffffffffffff167f5f8d3f6f8ce00a7e97a3b3991c7eb55ccbb77bfe1cb3c55c4be8a73a0037ea6d8c8c8c8c8a8a604051610b7496959493929190611bc5565b60405180910390a45050505050505050505050565b6000828290508585905014610bd3576040517f08c379a0000000000000000000000000000000000000000000000000000000008152600401610bca90611c89565b60405180910390fd5b60005b85859050811015610cb157600073ffffffffffffffffffffffffffffffffffffffff16868683818110610c0c57610c0b6115b9565b5b9050602002016020810190610c2191906115e8565b73ffffffffffffffffffffffffffffffffffffffff1603610c77576040517f08c379a0000000000000000000000000000000000000000000000000000000008152600401610c6e906119fd565b60405180910390fd5b838382818110610c8a57610c896115b9565b5b9050602002013582610c9c91906117df565b91508080610ca990611797565b915050610bd6565b50803414610cf4576040517f08c379a0000000000000000000000000000000000000000000000000000000008152600401610ceb90611a69565b60405180910390fd5b60005b85859050811015610e02576000868683818110610d1757610d166115b9565b5b9050602002016020810190610d2c91906115e8565b73ffffffffffffffffffffffffffffffffffffffff16858584818110610d5557610d546115b9565b5b90506020020135604051610d6890611aaf565b60006040518083038185875af1925050503d8060008114610da5576040519150601f19603f3d011682016040523d82523d6000602084013e610daa565b606091505b5050905080610dee576040517f08c379a0000000000000000000000000000000000000000000000000000000008152600401610de590611b10565b60405180910390fd5b508080610dfa90611797565b915050610cf7565b508484604051610e139291906118f9565b60405180910390207fd76871a3b9b205c530f73884df11af482cc4ac28f71bdb2f15a98e79a3a79076338585604051610e4e93929190611ca9565b60405180910390a25050505050565b8383905086869050148015610e7757508181905086869050145b610eb6576040517f08c379a0000000000000000000000000000000000000000000000000000000008152600401610ead90611599565b60405180910390fd5b60005b86869050811015611083576000878783818110610ed957610ed86115b9565b5b9050602002016020810190610eee91906115e8565b905060008173ffffffffffffffffffffffffffffffffffffffff1633888886818110610f1d57610f1c6115b9565b5b9050602002016020810190610f3291906115e8565b878787818110610f4557610f446115b9565b5b90506020020135604051602401610f5e9392919061163d565b6040516020818303038152906040527f23b872dd000000000000000000000000000000000000000000000000000000007bffffffffffffffffffffffffffffffffffffffffffffffffffffffff19166020820180517bffffffffffffffffffffffffffffffffffffffffffffffffffffffff8381831617835250505050604051610fe891906116e5565b6000604051808303816000865af19150503d8060008114611025576040519150601f19603f3d011682016040523d82523d6000602084013e61102a565b606091505b505090508061106e576040517f08c379a000000000000000000000000000000000000000000000000000000000815260040161106590611748565b60405180910390fd5b5050808061107b90611797565b915050610eb9565b5083836040516110949291906118f9565b604051809103902086866040516110ac9291906118f9565b60405180910390203373ffffffffffffffffffffffffffffffffffffffff167fcf1075ee8a4425118fb210d430c4f15db84e74c5db74db0fe12eda7d7e06fd0785856040516110fc92919061198d565b60405180910390a4505050505050565b600080fd5b600080fd5b600073ffffffffffffffffffffffffffffffffffffffff82169050919050565b600061114182611116565b9050919050565b61115181611136565b811461115c57600080fd5b50565b60008135905061116e81611148565b92915050565b600080fd5b600080fd5b600080fd5b60008083601f84011261119957611198611174565b5b8235905067ffffffffffffffff8111156111b6576111b5611179565b5b6020830191508360208202830111156111d2576111d161117e565b5b9250929050565b60008083601f8401126111ef576111ee611174565b5b8235905067ffffffffffffffff81111561120c5761120b611179565b5b6020830191508360208202830111156112285761122761117e565b5b9250929050565b60008060008060006060868803121561124b5761124a61110c565b5b60006112598882890161115f565b955050602086013567ffffffffffffffff81111561127a57611279611111565b5b61128688828901611183565b9450945050604086013567ffffffffffffffff8111156112a9576112a8611111565b5b6112b5888289016111d9565b92509250509295509295909350565b60008060008060008060008060008060a08b8d0312156112e7576112e661110c565b5b60008b013567ffffffffffffffff81111561130557611304611111565b5b6113118d828e01611183565b9a509a505060208b013567ffffffffffffffff81111561133457611333611111565b5b6113408d828e01611183565b985098505060408b013567ffffffffffffffff81111561136357611362611111565b5b61136f8d828e016111d9565b965096505060608b013567ffffffffffffffff81111561139257611391611111565b5b61139e8d828e01611183565b945094505060808b013567ffffffffffffffff8111156113c1576113c0611111565b5b6113cd8d828e016111d9565b92509250509295989b9194979a5092959850565b600080600080604085870312156113fb576113fa61110c565b5b600085013567ffffffffffffffff81111561141957611418611111565b5b61142587828801611183565b9450945050602085013567ffffffffffffffff81111561144857611447611111565b5b611454878288016111d9565b925092505092959194509250565b6000806000806000806060878903121561147f5761147e61110c565b5b600087013567ffffffffffffffff81111561149d5761149c611111565b5b6114a989828a01611183565b9650965050602087013567ffffffffffffffff8111156114cc576114cb611111565b5b6114d889828a01611183565b9450945050604087013567ffffffffffffffff8111156114fb576114fa611111565b5b61150789828a016111d9565b92509250509295509295509295565b600082825260208201905092915050565b7f54686520696e70757420617272617973206d757374206861766520746865207360008201527f616d65206c656e67746800000000000000000000000000000000000000000000602082015250565b6000611583602a83611516565b915061158e82611527565b604082019050919050565b600060208201905081810360008301526115b281611576565b9050919050565b7f4e487b7100000000000000000000000000000000000000000000000000000000600052603260045260246000fd5b6000602082840312156115fe576115fd61110c565b5b600061160c8482850161115f565b91505092915050565b61161e81611136565b82525050565b6000819050919050565b61163781611624565b82525050565b60006060820190506116526000830186611615565b61165f6020830185611615565b61166c604083018461162e565b949350505050565b600081519050919050565b600081905092915050565b60005b838110156116a857808201518184015260208101905061168d565b60008484015250505050565b60006116bf82611674565b6116c9818561167f565b93506116d981856020860161168a565b80840191505092915050565b60006116f182846116b4565b915081905092915050565b7f42617463685472616e7366657220546f6b656e206661696c6564000000000000600082015250565b6000611732601a83611516565b915061173d826116fc565b602082019050919050565b6000602082019050818103600083015261176181611725565b9050919050565b7f4e487b7100000000000000000000000000000000000000000000000000000000600052601160045260246000fd5b60006117a282611624565b91507fffffffffffffffffffffffffffffffffffffffffffffffffffffffffffffffff82036117d4576117d3611768565b5b600182019050919050565b60006117ea82611624565b91506117f583611624565b925082820190508082111561180d5761180c611768565b5b92915050565b60006040820190506118286000830185611615565b611835602083018461162e565b9392505050565b600081905092915050565b6000819050919050565b61185a81611136565b82525050565b600061186c8383611851565b60208301905092915050565b6000611887602084018461115f565b905092915050565b6000602082019050919050565b60006118a8838561183c565b93506118b382611847565b8060005b858110156118ec576118c98284611878565b6118d38882611860565b97506118de8361188f565b9250506001810190506118b7565b5085925050509392505050565b600061190682848661189c565b91508190509392505050565b600082825260208201905092915050565b600080fd5b82818337505050565b600061193d8385611912565b93507f07ffffffffffffffffffffffffffffffffffffffffffffffffffffffffffffff8311156119705761196f611923565b5b602083029250611981838584611928565b82840190509392505050565b600060208201905081810360008301526119a8818486611931565b90509392505050565b7f526563697069656e742061646472657373206973207a65726f00000000000000600082015250565b60006119e7601983611516565b91506119f2826119b1565b602082019050919050565b60006020820190508181036000830152611a16816119da565b9050919050565b7f496e73756666696369656e742062616c616e6365207061737365640000000000600082015250565b6000611a53601b83611516565b9150611a5e82611a1d565b602082019050919050565b60006020820190508181036000830152611a8281611a46565b9050919050565b50565b6000611a9960008361167f565b9150611aa482611a89565b600082019050919050565b6000611aba82611a8c565b9150819050919050565b7f42617463685472616e73666572206661696c6564000000000000000000000000600082015250565b6000611afa601483611516565b9150611b0582611ac4565b602082019050919050565b60006020820190508181036000830152611b2981611aed565b9050919050565b600082825260208201905092915050565b611b4a81611136565b82525050565b6000611b5c8383611b41565b60208301905092915050565b6000611b748385611b30565b9350611b7f82611847565b8060005b85811015611bb857611b958284611878565b611b9f8882611b50565b9750611baa8361188f565b925050600181019050611b83565b5085925050509392505050565b60006060820190508181036000830152611be081888a611b68565b90508181036020830152611bf5818688611931565b90508181036040830152611c0a818486611931565b9050979650505050505050565b7f54686520696e707574206172726179206d75737420686176652074686520736160008201527f6d65206c656e6774680000000000000000000000000000000000000000000000602082015250565b6000611c73602983611516565b9150611c7e82611c17565b604082019050919050565b60006020820190508181036000830152611ca281611c66565b9050919050565b6000604082019050611cbe6000830186611615565b8181036020830152611cd1818486611931565b905094935050505056fea26469706673582212208c67ce13dafe838ac274e9e33df7fb117b9584595423945e1f7df11b14ebdb1a64736f6c63430008110033",
  "linkReferences": {},
  "deployedLinkReferences": {}
}